:020000040000FA
:1000000002038FE4FDC374079DFF1208AE120711AF
:10001000C3EF9417EE94FC40040DBD08E8BD08033F
:100020007F0022C374079DFF2222220208A4EF8DC5
:10003000F0A4A8F0CF8CF0A428CE8DF0A42EFE2240
:10004000BC000BBE0029EF8DF084FFADF022E4CCA4
:10005000F875F008EF2FFFEE33FEEC33FCEE9DEC6D
:10006000984005FCEE9DFE0FD5F0E9E4CEFD22EDB3
:10007000F8F5F0EE8420D21CFEADF075F008EF2FFD
:10008000FFED33FD4007985006D5F0F222C398FDEE
:100090000FD5F0EA22C5F0F8A3E028F0C5F0F8E5A6
:1000A00082158270021583E038F022BB010A898232
:1000B0008A83E0F5F0A3E022500687F009E71922D1
:1000C000BBFE07E3F5F009E3192289828A83E493F2
:1000D000F5F074019322BB010A89828A83F0E5F06E
:1000E000A3F0225006F709A7F01922BBFE06F3E59C
:1000F000F009F31922F8BB0111E58229F582E583A5
:100100003AF583E8F0E5F0A3F0225009E92582C82A
:10011000F608A6F022BBFE09E92582C8F2E5F00840
:10012000F222EF2BFFEE3AFEED39FDEC38FC22E82F
:100130008FF0A4CC8BF0A42CFCE98EF0A42CFC8ACC
:10014000F0EDA42CFCEA8EF0A4CDA8F08BF0A42D49
:10015000CC3825F0FDE98FF0A42CCD35F0FCEB8EEA
:10016000F0A4FEA9F0EB8FF0A4CFC5F02ECD39FEA0
:10017000E43CFCEAA42DCE35F0FDE43CFC2275F015
:1001800008758200EF2FFFEE33FECD33CDCC33CC9C
:10019000C58233C5829BED9AEC99E58298400CF5B7
:1001A00082EE9BFEED9AFDEC99FC0FD5F0D6E4CEE5
:1001B000FBE4CDFAE4CCF9A88222B800C1B9005919
:1001C000BA002DEC8BF084CFCECDFCE5F0CBF978E6
:1001D00018EF2FFFEE33FEED33FDEC33FCEB33FB7A
:1001E00010D703994004EB99FB0FD8E5E4F9FA2204
:1001F0007818EF2FFFEE33FEED33FDEC33FCC933FF
:10020000C910D7059BE99A4007EC9BFCE99AF90FC6
:10021000D8E0E4C9FAE4CCFB2275F010EF2FFFEE32
:1002200033FEED33FDCC33CCC833C810D7079BEC7D
:100230009AE899400AED9BFDEC9AFCE899F80FD5F5
:10024000F0DAE4CDFBE4CCFAE4C8F922E8600FEC84
:10025000C313FCED13FDEE13FEEF13FFD8F122E8FC
:10026000600FEFC333FFEE33FEED33FDEC33FCD80C
:10027000F122E0FCA3E0FDA3E0FEA3E0FF22ECF00E
:10028000A3EDF0A3EEF0A3EFF022A42582F582E522
:10029000F03583F58322EBF0A3EAF0A3E9F022EC3A
:1002A0008EF0A4CCC5F0CCCDF8EFA4CEC5F02DFDDA
:1002B000E43CFCE8A42EC8C5F03DFDE43CFCEFA402
:1002C000FFE5F028FEE43DFDE43CFC22EF14B40918
:1002D0000040030203779002E475F003A4C5832570
:1002E000F0C583730202FF02030F02031C020329FD
:1002F00002033602034302035002035D02036A3025
:100300000102807630010302038E1207B8807A3032
:10031000010280662001771207C7806D30010280DC
:100320005920016A1207D68060300102804C2001FA
:100330005D1207E58053300102803F200150120713
:10034000F4804630010280322001431208038039D4
:100350003001028025200136120812802C30010263
:100360008018200129120821801F300102800B20F3
:10037000011C120830801230010912083F120902D4
:10038000C2002220010812083F120907C2002212EF
:10039000091C787FE4F6D8FD75814C0203D902066A
:1003A000B4E493A3F8E493A34003F68001F208DFDA
:1003B000F48029E493A3F85407240CC8C333C4542D
:1003C0000F4420C8834004F456800146F6DFE480E1
:1003D0000B0102040810204080900535E47E019353
:1003E00060BCA3FF543F30E509541FFEE493A360B3
:1003F000010ECF54C025E060A840B8E493A3FAE40E
:1004000093A3F8E493A3C8C582C8CAC583CAF0A35E
:10041000C8C582C8CAC583CADFE9DEE780BE753BAE
:1004200000753CFFE4FFEF90093593FEC3953CE473
:10043000953B500CEF90092D93FBEE753B00F53C7E
:100440000FBF02E2EF9009359375F004A485F03BED
:10045000F53CE5AF5407FFEBD39F4017AE3BAF3CF5
:100460007C007D5012002E7D641200408E3B8F3C3C
:100470001B80DFD3E53C9490E53B94014006753B3F
:1004800001753C90C3E53C943CE53B9400500675F7
:100490003B00753C3C2285A90DE52C704EE5AE7005
:1004A0000675AEA575AEF17D087F051207B07D0714
:1004B0007F061207B07D807F041207B075A9747D96
:1004C000C07F041207B07F327E00EF1F70011EEF65
:1004D0004E70F77DC07F041207B075B520850DA959
:1004E000E5A930E7FB7533C0752C0122AE07EE900D
:1004F000092B93FF120920EE90092D93FF1208AEED
:1005000075F00EEEA42404F582E5F03400F583E0E6
:10051000FCA3E04C6008EE90092F93FF80027F045B
:100520001208DE1200291207118E188F1912090CF9
:10053000AE18AF1922012202012B0201230202256B
:100540000014022900140227006401210101240083
:1005500041002400012F00012C00C101C100013A1B
:100560000002380000023B0096C102023500000183
:100570004201013D000085A70C1208691208C9124A
:1005800008D71208D0120910120876120740120874
:10059000FC1209141208B71206921208C012072D95
:1005A00012075312089A1208F6120918850CA7228E
:1005B00075B088E4F5D2F5D353F33F43F34075AA01
:1005C0008843F338E5426401600543AA048003438D
:1005D000AA0253AFF8120003EF42AF12041E020743
:1005E00011AFB5EF30E203753201EF30E303753040
:1005F00001EF30E103752E01EF30E4047FFFDFFEF1
:1006000075B520E5326006E4F5327F01227F0022D5
:10061000E4F5AA53F3C043F3C053F3C743F318F50B
:10062000FEF5FDF5D2F5D343AF1075B08853B0DFBA
:1006300043B010E5B030E5FBE4F5B0228F128E1127
:100640008D108C0F75AC14E53354F7F5AD0075AC17
:10065000188512AD008511AD008510AD00850FAD78
:100660000075AC148533AD22E53A70171208835338
:10067000B6BFE5A930E7FB75B58C43B6401205E17E
:1006800002078AAFB5EF30E2FA12085CE49000246A
:10069000F02275AC0575AD28E5AC20E7FB75AC081C
:1006A00075AD20E5AC20E7FB75AC0475AD80E5AC1D
:1006B00020E7FB22E4F508F509F50AF50BC2031261
:1006C0000576121000120B23750800750909AF0991
:1006D0001202CC80ED8E0D8F0E1206F4AE0DAF0E11
:1006E0007C407D1012029FE47BE87A03F9F8120146
:1006F000BA02063C75AC10E4F5AD00F5AD00F5AD01
:1007000000F5AD001207A97F0412088FEF20E1F772
:100710002275B08853B0DF43B010E5B030E5FB85FB
:10072000EE1A85ED1BE4F5B0AE1AAF1B22AF88536D
:1007300088AF758C9EEF5440FEEF54104E428822D5
:10074000E4F5A775A50675F20675D5E375A70F75CF
:100750009B0622E5C8540453C8FB75CBBD75CA8AF5
:1007600043C80442C82212079A120496AF2AAE293F
:100770001206D57F1C02084E12079A120496AF2665
:10078000AE251206D57F1C02084EAFA7E4F5A7855B
:1007900031A9E5A930E7FB8FA72275B520E4F53430
:1007A000F532F530F52DF52E22E5334402FD7F04B8
:1007B000EF4410F5AC8DAD22C281D282D283C284C7
:1007C000C285C286C28722D281D282C283D284D21B
:1007D00085C286D28722D281D282D283D284C28538
:1007E000C286D28722C281D282D283C284C285D2FB
:1007F00086D28722D281C282D283D284C285D28617
:10080000D28722D281C282D283D284D285D286D2AA
:100810008722D281D282D283C284C285C286C28715
:1008200022D281D282D283D284D285D286D287222A
:10083000D281D282D283D284C285D286D28722D27A
:1008400081D282D283D284D285D286C28722EF54CB
:10085000FC4233E5334FFD7F040207B01205E1EFA0
:1008600060069000247401F022E4F5A753D9BF7507
:10087000D90443D8402275A4FF75D4FE75A70F751F
:1008800099FF2285A93175A914E5A930E7FB22EF6C
:100890004490F5AC000000AFAD22758E047589025E
:1008A00043881022200006B201D200C2CF3253AFDB
:1008B000F8EF540742AF2243B280E5B230E6FB22A4
:1008C000E4F5A9E5A930E7FB2253DF7F75DA422280
:1008D00053DF7F75DC082253DF7F75DB4222EF5444
:1008E00007F5AA221208EA0206105390DE02090C4C
:1008F00012092A0205B012113E020944E4F5A7F5D7
:10090000A022C292D28022D292C2802253F2DE2250
:1009100075C9102275E3402275A8A02253D9BF22C1
:100920008FAB2202077802076622220D080707050F
:100930000546461E1E3E3EE521B4010475370222DF
:1009400075370122E4F50DE50DC39522501DE4FD38
:10095000FCAF0D3177AF0D5147AF0D316DAF0D319C
:10096000F7AF0D31B151DA050D80DC80CA75F00E9C
:10097000EF1211A6E4F0228F0EE4FFEFC3952B5087
:100980001475F00EE50E121216EF12028AECF0A3A7
:10099000EDF00F80E675F00EE50E1211A6E4F0E51D
:1009A0000E90093593FF75F00EE50E1211B8EFF0B9
:1009B000228F0E75F00EEF1211A6E0543FF075F085
:1009C0000EE50E12119BE4F01211BEE50E900933F4
:1009D0001211E8E50E25E02445F8A60608A6071240
:1009E00011BEE50E9009311211E8E50E25E024490B
:1009F000F8A60608A607221211AEE0FCA3E0FD75DA
:100A0000F00EEF1211FAECF0A3EDF075F00EEF908E
:100A1000000C12028AE4F0A3F0E522C39404500211
:100A20008007E522C394085005751C80800AE522E2
:100A3000C394105003751C40E522C39420500475E4
:100A40001C1022751C08228F0EE4F510F511F51507
:100A5000F514F513F51212002AE4F515F514F51343
:100A6000F51275F00EE50E1211B2E4F0A3F0F510D8
:100A7000F511AF0E1204ECE4FCFDE5152FFFE514B3
:100A80003EFEED3513FDEC35128F158E148D13F5EA
:100A9000120511E51170020510C39408E5109400C9
:100AA00040D0AF15AE14AD13AC12780312024C8EC9
:100AB000168F1775F00EE50E1211B2E516F0A3E5CC
:100AC00017F0E4F50FE50FC3952B500CAD17AC16DE
:100AD000AF0E51E7050F80ED2129E4F541F540F512
:100AE0003FF53E754201228C188D19EF75F00EA46A
:100AF0002400F9740035F0FA7B0190001C12029674
:100B00001200ABFF900002E5F08FF01200F5E5183F
:100B10008519F00200D68F0C1204ECAD07AC06AFBD
:100B20000C80C4E4781FF6781FE6FFC3952250209E
:100B30007116781FE6FF121144781FE6FF91767850
:100B40001FE6FFB16A781FE6FFD157781F0680D7EE
:100B5000E4F543F544F50CE50CC395225066E4FD3D
:100B6000AF0C91658E0D8F0E9161EF4E7004AE0D3E
:100B7000AF0ED3E50E9FE50D9E400CE50E9FF510E0
:100B8000E50D9EF50F800BC3EF950EF510EE950D5C
:100B9000F50FAD0CAF10AE0FF1A3750F008F10D392
:100BA000E510945AE50F9400400AE510946EE50FA5
:100BB0009400400CE5102544F544E50F3543F5431A
:100BC000050C8093E47F07FEFDFCAB41AA40A93FE2
:100BD000A83E12012FE47B081211F4C004C005C026
:100BE00006C007AE43AF44E4FCFD781012025FE498
:100BF0007B081211F4D003D002D001D000120122E0
:100C00008F418E408D3F8C3EE4FBFA7901F8AF4175
:100C1000AE40AD3FAC3E1201BAC006C007AF22AB3A
:100C2000077A00E4F9F8D007D0061201BA781DA6B9
:100C30000608A60718E6FE08E6FFC3940AEE94002D
:100C4000500BE53D700475420122153D22C3EF941F
:100C50000FEE94005007753D0A754202227542035B
:100C6000227D01AF0C75F00EEF121216ED12028A02
:100C7000E0FEA3E0FF228F0CE4FD916590001CEEE6
:100C8000F0A3EFF0916190001E1212207002A3E019
:100C9000700F90001CE0FFA3E090001ECFF0A3EFC8
:100CA000F0AF0CF164900020121220FEA3E0FFD3FD
:100CB00012120B4024121232FF90001FE02FFD9001
:100CC000001EE03EFCD3121200400E90001FE02FE9
:100CD000FF90001EE03E12122A90001EE0FEA3E0EC
:100CE000FFC312120B5026121232FFC390001FE0F6
:100CF0009FFD90001EE09EFCC3121200500FC39097
:100D0000001FE09FFF90001EE09E12122AE4900058
:100D10001EF0A3F0AF1CAB07FAF9F875F00EE50C66
:100D20001211FA1202721201BA1211D4E51C24FF38
:100D3000FFE434FFFEE4FCFD12012FC004C005C037
:100D400006C007AF1CAB07E4FAF9F890001C1202CA
:100D5000721201BAD003D002D001D0001201227564
:100D6000F00EE50C1211FA02027E8F0CEF25E02442
:100D700045F8E6F50F08E6F510EF25E02449F8E61A
:100D8000F50D08E6F50EE4FDFCF1748E118F1212DC
:100D900011A1E054807029C3E512950EE511950D5F
:100DA0005004AF0CE148D3E512950EE511950D40C6
:100DB00037AF0CD11CEF60301211A1E04480F0225B
:100DC000D3E5129510E511950F4004AF0CE13CC33B
:100DD000E5129510E511950F500EAF0CB1E9EF60DB
:100DE000071211A1E0547FF022121195E0FF540F79
:100DF000FD640F60010D121197EF54F0F01211977E
:100E0000E04DF0ED640F6007F131EDC39F400A1231
:100E10001197E054F0F07F01227F0022121195E03B
:100E2000FFC4540FFD640F60010D121197EF540FB2
:100E3000F0121197E0FFEDC454F0FCEF4CF0ED64BC
:100E40000F6007F131EDC39F400A121197E0540F74
:100E5000F07F01227F00221211ACE0F50DA3E0F536
:100E60000EF154EF6002E130E542640175F00E606E
:100E700007E50C90000A8005E50C90000012028A3C
:100E8000E0F50FA3E0F510D3E510950EE50F950DF5
:100E900040091211DDE0240AF08012C3E510950E1E
:100EA000E50F950D50071211DDE024F6F01211DD6B
:100EB000E0FFD3648094E4401175F00EE50C12114C
:100EC000B2E475F0011200958061C3EF6480941C58
:100ED000505EE54264017041E50C90093593C313FF
:100EE000FF75F00EE50C1211B2E0FCA3E0C39FFF0A
:100EF000EC9400FE75F00EE50C1211FAE0FCA3E094
:100F0000FDC39FEC9E75F00EE50C9000045012128C
:100F1000028AECF0A3EDF0801275F00EE50C900063
:100F20000412028A74FFF5F01200951211DDE4F04C
:100F300022E5426401AF2360027F0F2275F00EEFBD
:100F400012119BE054F0F02275F00EEF12119BE0AD
:100F5000540FF02275F00EEF1211A6E07F0030E67C
:100F6000027F012275F00EEF1211B8E075F010A4A7
:100F7000FFAEF022AB07F1D2C3EF9DF514EE9CF566
:100F80001375F00EEB1211B2E0FEA3E0FFD3E514EF
:100F90009FE5139E4009E5149FFFE5139EFE22E4A2
:100FA000FEFF228E118F12AF05F164EE3395E0FD46
:100FB000FCC0041211D6AE11AF127C007D64120287
:100FC0009FD0001201BAD3EF94FFEE940040027F4D
:100FD000FF22E54275F00EB40106EF900000800498
:100FE000EF90000A12028AE0FEA3E0FF2275F00EE5
:0D0FF000EF1211A6E07F0030E7027F012222
:1010000012085CE53764036018E53764016012E597
:10101000376402600201A0900024E06401600201D4
:10102000A0900024E024FFB39202E4F0E5376402CC
:101030006006E5376401704211A1EF702AE524B41F
:10104000012A0536E536AE357002053514C39528FC
:10105000EE95274017753703E4F535F53612092666
:101060001208F011C18005E4F535F536E537B40115
:101070000930022C120668C20222E537640370832D
:101080001206683110EF700201031209231208E4FE
:10109000E521600475370222753701E4F535F53630
:1010A00022E4F50DF50CE50CC395225011AF0C129E
:1010B0000FEDBF0105750D018004050C80E8AF0D33
:1010C00022E4F510F50FF50EF50DF538F539F510AC
:1010D000F50FF50EF50DF50C120711E4FCFDE5100A
:1010E0002FFFE50F3EFEED350EFDEC350D8F108E1A
:1010F0000F8D0EF50D050CE50CC3940440DAAF100E
:10110000AE0FAD0EAC0D780212024C8E388F392224
:10111000120711E539253CFDE538353BFCD3EF9D41
:10112000EE9C40037F0122C3E539953CFDE53895EF
:101130003BFCC3EF9DEE9C7F0050027F0122120812
:10114000E402092331ACE0FEA3E0FDAC0675F00E2D
:10115000EF31B8E075F008A4AEF02DF50EEE3CF5D9
:101160000DC3E50E9DE50D9C500531A1E4F022AFC5
:101170000C120FD2D3EF950EEE950D75F00EE50C17
:10118000900007400812028AE04440F02212028ACE
:10119000E054BFF022AE0775F00EEE900008020298
:1011A0008A75F00EE50C90000702028A8F0C75F02C
:1011B0000EEF90000402028A90000602028A75F087
:1011C0000EE50E90000612028AE0FF7E007C007D94
:1011D0001012029FA804A905AA06AB072275F00EFB
:1011E000E50C90000902028A93FFE4FCFDFE120167
:1011F0002FE47B64FAF9F80201BA90000A02028A2D
:1012000090001DE09D90001CE09C2290001DE09F3E
:1012100090001CE09E2290000012028A75F00222CB
:10122000EEF0A3EFF090001EE02290001CF0A3EF80
:0A123000F022900020E0FEA3E0226F
:00000001FF
