:020000040000FA
:100000000203C275AC0575AD28E5AC20E7FB75AC05
:100010000875AD20E5AC20E7FB75AC0475AD80E557
:10002000AC20E7FB22EF5407F5AA22020809EF8D66
:10003000F0A4A8F0CF8CF0A428CE8DF0A42EFE2240
:10004000BC000BBE0029EF8DF084FFADF022E4CCA4
:10005000F875F008EF2FFFEE33FEEC33FCEE9DEC6D
:10006000984005FCEE9DFE0FD5F0E9E4CEFD22EDB3
:10007000F8F5F0EE8420D21CFEADF075F008EF2FFD
:10008000FFED33FD4007985006D5F0F222C398FDEE
:100090000FD5F0EA22C2D5EC30E709B2D5E4C39D12
:1000A000FDE49CFCEE30E715B2D5E4C39FFFE49E6F
:1000B000FE120040C3E49DFDE49CFC80031200405E
:1000C00030D507C3E49FFFE49EFE22C5F0F8A3E00D
:1000D00028F0C5F0F8E582158270021583E038F04B
:1000E00022BB010A89828A83E0F5F0A3E022500650
:1000F00087F009E71922BBFE07E3F5F009E31922AF
:1001000089828A83E493F5F074019322BB010A8902
:10011000828A83F0E5F0A3F0225006F709A7F019D0
:1001200022BBFE06F3E5F009F31922F8BB0111E545
:100130008229F582E5833AF583E8F0E5F0A3F02221
:100140005009E92582C8F608A6F022BBFE09E92578
:1001500082C8F2E5F008F222EF2BFFEE3AFEED390D
:10016000FDEC38FC22E88FF0A4CC8BF0A42CFCE949
:100170008EF0A42CFC8AF0EDA42CFCEA8EF0A4CD29
:10018000A8F08BF0A42DCC3825F0FDE98FF0A42C3D
:10019000CD35F0FCEB8EF0A4FEA9F0EB8FF0A4CFF0
:1001A000C5F02ECD39FEE43CFCEAA42DCE35F0FDA1
:1001B000E43CFC2275F008758200EF2FFFEE33FE61
:1001C000CD33CDCC33CCC58233C5829BED9AEC992F
:1001D000E58298400CF582EE9BFEED9AFDEC99FCD1
:1001E0000FD5F0D6E4CEFBE4CDFAE4CCF9A8822218
:1001F000B800C1B90059BA002DEC8BF084CFCECD38
:10020000FCE5F0CBF97818EF2FFFEE33FEED33FD70
:10021000EC33FCEB33FB10D703994004EB99FB0F55
:10022000D8E5E4F9FA227818EF2FFFEE33FEED332C
:10023000FDEC33FCC933C910D7059BE99A4007ECA4
:100240009BFCE99AF90FD8E0E4C9FAE4CCFB2275EB
:10025000F010EF2FFFEE33FEED33FDCC33CCC8337F
:10026000C810D7079BEC9AE899400AED9BFDEC9AE1
:10027000FCE899F80FD5F0DAE4CDFBE4CCFAE4C859
:10028000F922E8600FECC313FCED13FDEE13FEEF53
:1002900013FFD8F122E8600FEFC333FFEE33FEED1A
:1002A00033FDEC33FCD8F122E0FCA3E0FDA3E0FE3B
:1002B000A3E0FF22ECF0A3EDF0A3EEF0A3EFF02219
:1002C000A42582F582E5F03583F58322EBF0A3EADD
:1002D000F0A3E9F022EC8EF0A4CCC5F0CCCDF8EF81
:1002E000A4CEC5F02DFDE43CFCE8A42EC8C5F03D2D
:1002F000FDE43CFCEFA4FFE5F028FEE43DFDE43C1A
:10030000FC22EF14B4090040030203AD90031A75F8
:10031000F003A4C58325F0C58373020335020345AA
:1003200002035202035F02036C0203790203860296
:1003300003930203A0120736BD01028076ED60032D
:100340000203C18077120745BD01028066ED70711E
:10035000806A120754BD01028059ED7064805D12FD
:100360000763BD0102804CED70578050120772BDCB
:100370000102803FED704A8043120781BD01028077
:1003800032ED703D8036120790BD01028025ED7080
:1003900030802912079FBD01028018ED7023801C58
:1003A0001207AEBD0102800BED7016800F1207BD63
:1003B000BD010612085BC20022ED7005120860C282
:1003C0000022120875787FE4F6D8FD75814C02048E
:1003D0000C020451E493A3F8E493A34003F68001D4
:1003E000F208DFF48029E493A3F85407240CC8C36F
:1003F00033C4540F4420C8834004F456800146F6A9
:10040000DFE4800B0102040810204080900576E4B0
:100410007E019360BCA3FF543F30E509541FFEE406
:1004200093A360010ECF54C025E060A840B8E493C8
:10043000A3FAE493A3F8E493A3C8C582C8CAC5830A
:10044000CAF0A3C8C582C8CAC583CADFE9DEE7808F
:10045000BEE4F508F509F50AF50BC2031205B7125B
:100460000A6BE4FF120F6BEF601E20031B0509E50A
:100470000970020508D39463E508648094804029DC
:1004800075080075096380217F01120F6BEF6024EE
:10049000200321E509150970021508C3E5086480E9
:1004A00094805005E4F508F509D291D203E4F50AE9
:1004B000F50B801AC291050BE50B7002050AD39467
:1004C00041E50A94004007E4F50AF50BC203AF09C1
:1004D000AE08120649808885A90DE52C704EE5AE60
:1004E000700675AEA575AEF17D087F0512072E7DED
:1004F000077F0612072E7D807F0412072E75A974D0
:100500007DC07F0412072E7F327E00EF1F70011E18
:10051000EF4E70F77DC07F0412072E75B520850D54
:10052000A9E5A930E7FB7533C0752C0122AE07EEB3
:1005300090088293FF120879EE90088493FF1208C6
:100540001375F00EEEA42404F582E5F03400F58373
:10055000E0FCA3E04C6008EE90088693FF80027FE9
:100560000412002512087F1206B18E188F19120886
:1005700065AE18AF1922012202012B0201230202EB
:10058000250014022900140227006401210101241E
:100590000041002400012F00012C00C101C1000115
:1005A0003A0002380000023B0096C102023500000A
:1005B000014201013D000085A70C1207DA12082E46
:1005C00012083C1208351208691207E71206E012F9
:1005D000085512086D12081C120003120825120695
:1005E000CD1206F31207FF12084F120871850CA7EF
:1005F00022E4F5AA53F3C043F3C053F3C743F318FF
:10060000F5FEF5FDF5D2F5D343AF1075B08853B0C4
:10061000DF43B010E5B030E5FBE4F5B0228F128E79
:10062000118D108C0F75AC14E53354F7F5AD0075D2
:10063000AC188512AD008511AD008510AD00850F99
:10064000AD0075AC148533AD22AB07AA067C007DE6
:100650000A1200958C0C8D0DAE02AF037C007D0A52
:100660001200953001047D018007200107AF0DE4E1
:10067000FD120302228E0D8F0E120694AE0DAF0EE8
:100680007C407D101202D5E47BE87A03F9F8120170
:10069000F002061D75AC10E4F5AD00F5AD00F5AD4A
:1006A00000F5AD001207277F041207F4EF20E1F7F1
:1006B0002275B08853B0DF43B010E5B030E5FB855C
:1006C000EE1A85ED1BE4F5B0AE1AAF1B22AF8853CE
:1006D00088AF758C9EEF5440FEEF54104E42882236
:1006E000E4F5A775A50675F20675D5E375A70F7530
:1006F0009B0622E5C8540453C8FB75CBBD75CA8A56
:1007000043C80442C8221207181204D7AF26AE25E8
:100710001206757F1C0207CC75B520E4F534F5325E
:10072000F530F52DF52E22E5334402FD7F04EF442C
:1007300010F5AC8DAD22C281D282D283C284C28533
:10074000C286C28722D281D282C283D284D285C29B
:1007500086D28722D281D282D283D284C285C286B7
:10076000D28722C281D282D283C284C285D286D26B
:100770008722D281C282D283D284C285D286D28796
:1007800022D281C282D283D284D285D286D28722DB
:10079000D281D282D283C284C285C286C28722D24B
:1007A00081D282D283D284D285D286D28722D2814C
:1007B000D282D283D284C285D286D28722D281D2FB
:1007C00082D283D284D285D286C28722EF54FC4261
:1007D00033E5334FFD7F0402072EE4F5A753D9BF5D
:1007E00075D90443D8402275A4FF75D4FE75A70FB0
:1007F0007599FF22EF4490F5AC000000AFAD227573
:100800008E0475890243881022200006B201D200AE
:10081000C2CF3253AFF8EF540742AF2243B280E564
:10082000B230E6FB22E4F5A9E5A930E7FB2253DF6D
:100830007F75DA422253DF7F75DC082253DF7F7534
:10084000DB42221208490205F15390DE02086512CC
:100850000F6702089BE4F5A7F5A022C292D280227E
:10086000D292C2802253F2DE2275C9102275E34073
:100870002275A8A02253D9BF228FAB2202070622DD
:1008800022220D080707050546461E1E3E3EE521AD
:10089000B401047537022275370122E4F50DE50D28
:1008A000C39522501DE4FDFCAF0D11CDAF0D31926B
:1008B000AF0D11C4AF0D3144AF0D31045122050D00
:1008C00080DC80CA75F00EEFF18BE4F0228F0EE42D
:1008D000FFEFC3952B501375F00EE50EF1F7EF12F5
:1008E00002C0ECF0A3EDF00F80E775F00EE50EF11D
:1008F0008BE4F0E50E90088C93FF75F00EE50EF199
:10090000D4EFF0228F0E75F00EEFF18BE0543FF034
:1009100075F00EE50EF180E4F0F19DE50E90088A89
:10092000F1C2E50E25E02445F8A60608A607F19DCC
:10093000E50E900888F1C2E50E25E02449F8A606E8
:1009400008A60722F193E0FCA3E0FD75F00EEFF19D
:10095000BCECF0A3EDF075F00EEF90000C1202C0AD
:10096000E4F0A3F0E522C3940450028007E522C31B
:1009700094085005751C80800AE522C3941050032A
:10098000751C40E522C394205004751C1022751C70
:1009900008228F0EE4F510F511F515F514F513F591
:1009A000121180E4F515F514F513F51275F00EE546
:1009B0000EF197E4F0A3F0F510F511AF0E12052D2E
:1009C000E4FCFDE5152FFFE5143EFEED3513FDECCF
:1009D00035128F158E148D13F5120511E511700265
:1009E0000510C39408E510940040D0AF15AE14ADC7
:1009F00013AC1278031202828E168F1775F00EE573
:100A00000EF197E516F0A3E517F0E4F50FE50FC337
:100A1000952B500CAD17AC16AF0E512F050F80ED76
:100A20000181E4F541F540F53FF53E754201228C28
:100A3000188D19EF75F00EA42400F9740035F0FA42
:100A40007B0190001C1202CC1200E1FF900002E535
:100A5000F08FF012012BE5188519F002010C8F0CB4
:100A600012052DAD07AC06AF0C80C4E4781FF678F4
:100A70001FE6FFC39522501F515E781FE6FFD1FC91
:100A8000781FE6FF71BA781FE6FF91A7781FE6FF8F
:100A9000B189781F0680D8E4F543F544F50CE50CE0
:100AA000C395225066E4FDAF0C71AA8E0D8F0E71B6
:100AB000A6EF4E7004AE0DAF0ED3E50E9FE50D9E72
:100AC000400CE50E9FF510E50D9EF50F800BC3EF72
:100AD000950EF510EE950DF50FAD0CAF10AE0FD1D4
:100AE000A0750F008F10D3E510945AE50F940040C5
:100AF0000AE510946EE50F9400400CE5102544F5CE
:100B000044E50F3543F543050C8093E47F07FEFD74
:100B1000FCAB41AA40A93FA83E120165E47B08F165
:100B2000CEC004C005C006C007AE43AF44E4FCFD20
:100B30007810120295E47B08F1CED003D002D001E8
:100B4000D0001201588F418E408D3F8C3EE4FBFA5D
:100B50007901F8AF41AE40AD3FAC3E1201F0C006A6
:100B6000C007AF22AB077A00E4F9F8D007D006122D
:100B700001F0781DA60608A60718E6FE08E6FFC3E2
:100B8000940AEE9400500BE53D7004754201221565
:100B90003D22C3EF940FEE94005007753D0A754255
:100BA0000222754203227D01AF0C75F00EEFF1F7C2
:100BB000ED1202C0E0FEA3E0FF228F0CE4FD71AA5B
:100BC00090001CEEF0A3EFF071A690001E1210171B
:100BD0007002A3E0700F90001CE0FFA3E090001EE5
:100BE000CFF0A3EFF0AF0CD191900020121017FEC0
:100BF000A3E0FFD312100C4022F1EFFF90001FE0A2
:100C00002FFD90001EE03EFCD3121001400D90001D
:100C10001FE02FFF90001EE03EF1E790001EE0FE77
:100C2000A3E0FFC312100C5024F1EFFFC390001F8C
:100C3000E09FFD90001EE09EFCC3121001500EC309
:100C400090001FE09FFF90001EE09EF1E7E49000FF
:100C50001EF0A3F0AF1CAB07FAF9F875F00EE50C27
:100C6000F1BC1202A81201F0F1B3E51C24FFFFE46D
:100C700034FFFEE4FCFD120165C004C005C006C0DF
:100C800007AF1CAB07E4FAF9F890001C1202A81297
:100C900001F0D003D002D001D00012015875F00E3F
:100CA000E50CF1BC0202B48F0CEF25E02445F8E618
:100CB000F50F08E6F510EF25E02449F8E6F50D08F4
:100CC000E6F50EE4FDFCD1CE8E118F12F186E054D4
:100CD000807028C3E512950EE511950D5004AF0CF8
:100CE000C177D3E512950EE511950D4035AF0CB1E6
:100CF00052EF602EF186E04480F022D3E512951089
:100D0000E511950F4004AF0CC16CC3E5129510E5D9
:100D100011950F500DAF0CB123EF6006F186E05432
:100D20007FF022F17AE0FF540FFD640F60010DF1B6
:100D30007CEF54F0F0F17CE04DF0ED640F6007D1F2
:100D400061EDC39F4009F17CE054F0F07F01227F08
:100D50000022F17AE0FFC4540FFD640F60010DF131
:100D60007CEF540FF0F17CE0FFEDC454F0FCEF4C4D
:100D7000F0ED640F6007D161EDC39F4009F17CE0A5
:100D8000540FF07F01227F0022F191E0F50DA3E0E6
:100D9000F50ED182EF6002C160E542640175F00E8C
:100DA0006007E50C90000A8005E50C900000120237
:100DB000C0E0F50FA3E0F510D3E510950EE50F9513
:100DC0000D4007F1DA240AF08010C3E510950EE516
:100DD0000F950D5005F1DA24F6F0F1DAFFD36480B7
:100DE00094E4401075F00EE50CF197E475F00112F3
:100DF00000CB805FC3EF6480941C5064E5426401C3
:100E0000703FE50C90088C93C313FF75F00EE50C52
:100E1000F197E0FCA3E0C39FFFEC9400FE75F00E99
:100E2000E50CF1BCE0FCA3E0FDC39FEC9E75F00E69
:100E3000E50C90000450121202C0ECF0A3EDF0801B
:100E40001275F00EE50C9000041202C074FFF5F06C
:100E50001200CB75F00EE50C9000091202C0E4F010
:100E600022E5426401AF2360027F0F2275F00EEF8E
:100E7000F180E054F0F02275F00EEFF180E0540FB5
:100E8000F02275F00EEFF18BE07F0030E6027F017B
:100E90002275F00EEFF1D4E075F010A4FFAEF02251
:100EA0008E118F12AF05D191EE3395E0FDFCC00499
:100EB000F1B5AE11AF127C007D641202D5D00012E4
:100EC00001F0D3EF94FFEE940040027FFF22AB07C6
:100ED000F14CC3EF9DF514EE9CF51375F00EEBF19C
:100EE00097E0FEA3E0FFD3E5149FE5139E4009E5DC
:100EF000149FFFE5139EFE22E4FEFF22F191E0FE27
:100F0000A3E0FDAC0675F00EEFF1D4E075F008A497
:100F1000AEF02DF50EEE3CF50DC3E50E9DE50D9CF6
:100F20005005F186E4F022AF0CF14CD3EF950EEEB4
:100F3000950D75F00EE50C90000740081202C0E018
:100F40004440F0221202C0E054BFF022E54275F0A6
:100F50000EB40106EF9000008004EF90000A120228
:100F6000C0E0FEA3E0FF221143017C75F00EEFF11B
:100F70008BE07F0030E7027F0122AE0775F00EEEB6
:100F80009000080202C075F00EE50C900007020206
:100F9000C08F0C75F00EEF9000040202C075F00EC9
:100FA000E50E9000061202C0E0FF7E007C007D107E
:100FB0001202D5A804A905AA06AB072290000A02CE
:100FC00002C093FFE4FCFDFE120165E47B64FAF9C4
:100FD000F80201F09000060202C075F00EE50C90D8
:100FE00000091202C0E02290001CF0A3EFF0229052
:100FF0000020E0FEA3E0229000001202C075F00283
:101000002290001DE09D90001CE09C2290001DE0BD
:101010009F90001CE09E22EEF0A3EFF090001EE0F7
:0110200022AD
:00000001FF
