:020000040000FA
:100000000202A1EF8DF0A4A8F0CF8CF0A428CE8D31
:10001000F0A42EFE22BC000BBE0029EF8DF084FF61
:10002000ADF022E4CCF875F008EF2FFFEE33FEECD4
:1000300033FCEE9DEC984005FCEE9DFE0FD5F0E9FB
:10004000E4CEFD22EDF8F5F0EE8420D21CFEADF0FA
:1000500075F008EF2FFFED33FD4007985006D5F0FF
:10006000F222C398FD0FD5F0EA22C5F0F8A3E028EC
:10007000F0C5F0F8E582158270021583E038F022B1
:10008000BB010A89828A83E0F5F0A3E0225006874B
:10009000F009E71922BBFE07E3F5F009E31922890D
:1000A000828A83E493F5F074019322BB010A89826A
:1000B0008A83F0E5F0A3F0225006F709A7F0192291
:1000C000BBFE06F3E5F009F31922F8BB0111E58246
:1000D00029F582E5833AF583E8F0E5F0A3F02250B4
:1000E00009E92582C8F608A6F022BBFE09E92582A7
:1000F000C8F2E5F008F222EF2BFFEE3AFEED39FDF3
:10010000EC38FC22E88FF0A4CC8BF0A42CFCE98E18
:10011000F0A42CFC8AF0EDA42CFCEA8EF0A4CDA86F
:10012000F08BF0A42DCC3825F0FDE98FF0A42CCD78
:1001300035F0FCEB8EF0A4FEA9F0EB8FF0A4CFC558
:10014000F02ECD39FEE43CFCEAA42DCE35F0FDE4E2
:100150003CFC2275F008758200EF2FFFEE33FECDD8
:1001600033CDCC33CCC58233C5829BED9AEC99E577
:100170008298400CF582EE9BFEED9AFDEC99FC0F07
:10018000D5F0D6E4CEFBE4CDFAE4CCF9A88222B8CF
:1001900000C1B90059BA002DEC8BF084CFCECDFC54
:1001A000E5F0CBF97818EF2FFFEE33FEED33FDECE1
:1001B00033FCEB33FB10D703994004EB99FB0FD8CA
:1001C000E5E4F9FA227818EF2FFFEE33FEED33FD68
:1001D000EC33FCC933C910D7059BE99A4007EC9B67
:1001E000FCE99AF90FD8E0E4C9FAE4CCFB2275F0F7
:1001F00010EF2FFFEE33FEED33FDCC33CCC833C808
:1002000010D7079BEC9AE899400AED9BFDEC9AFC0D
:10021000E899F80FD5F0DAE4CDFBE4CCFAE4C8F9BC
:1002200022E8600FECC313FCED13FDEE13FEEF1399
:10023000FFD8F122E8600FEFC333FFEE33FEED335A
:10024000FDEC33FCD8F122E0FCA3E0FDA3E0FEA32B
:10025000E0FF22ECF0A3EDF0A3EEF0A3EFF022A478
:100260002582F582E5F03583F58322EBF0A3EAF0F1
:10027000A3E9F022EC8EF0A4CCC5F0CCCDF8EFA42D
:10028000CEC5F02DFDE43CFCE8A42EC8C5F03DFD34
:10029000E43CFCEFA4FFE5F028FEE43DFDE43CFC7B
:1002A000221208DA787FE4F6D8FD75814C0202EB61
:1002B000020330E493A3F8E493A34003F68001F231
:1002C00008DFF48029E493A3F85407240CC8C3334F
:1002D000C4540F4420C8834004F456800146F6DF1E
:1002E000E4800B0102040810204080900519E47E90
:1002F000019360BCA3FF543F30E509541FFEE49313
:10030000A360010ECF54C025E060A840B8E493A3D9
:10031000FAE493A3F8E493A3C8C582C8CAC583CA04
:10032000F0A3C8C582C8CAC583CADFE9DEE780BEBC
:10033000E4F508F509F50AF50BC20112058812105B
:1003400000120AD8E4FF120FADEF601C200119055E
:1003500009E50970020508D39409E50894004027CF
:10036000750800750909801F7F01120FADEF60222B
:1003700020011FE509150970021508C3E50894005E
:100380005005E4F508F509D291D201E4F50AF50B20
:10039000801AC291050BE50B7002050AD39441E562
:1003A0000A94004007E4F50AF50BC201AF091204F4
:1003B00081808B753B00753CFFE4FFEF9008F49360
:1003C000FEC3953CE4953B500CEF9008EC93FBEE9C
:1003D000753B00F53C0FBF02E2EF9008F49375F017
:1003E00004A485F03BF53CE5AF5407FFEBD39F40F9
:1003F00017AE3BAF3C7C007D501200037D641200C1
:10040000158E3B8F3C1B80DFD3E53C9490E53B94FD
:10041000014006753B01753C90C3E53C943CE53BCF
:1004200094005006753B00753C3C2285A90DE52CD7
:10043000704EE5AE700675AEA575AEF17D087F0510
:1004400012078D7D077F0612078D7D807F041207BE
:100450008D75A9747DC07F0412078D7F327E00EFF9
:100460001F70011EEF4E70F77DC07F0412078D755F
:10047000B520850DA9E5A930E7FB7533C0752C01C2
:1004800022EF14B40900504490049675F003A4C5FB
:100490008325F0C583730204B10204B40204B702D9
:1004A00004BA0204BD0204C00204C30204C602046A
:1004B000C90207950207A40207B30207C20207D1C7
:1004C0000207E00207EF0207FE02080D12081C22D5
:1004D000AE07EE9008EA93FF1208DEEE9008EC9368
:1004E000FF12087E75F00EEEA42404F582E5F034C8
:1004F00000F583E0FCA3E04C6008EE9008EE93FF6B
:1005000080027F041208AE1208E71206EE8E188FE2
:10051000191208D2AE18AF1922012202012B0201D2
:10052000230202250014022900140227006401217D
:100530000101240041002400012F00012C00013A98
:100540000002380000023B0096C1000235000001A5
:100550004201013D000075B088E4F5D275D3215306
:10056000F33F43F34075AA8843F338E542640160E2
:100570000543AA04800343AA0253AFF812066AEFA8
:1005800042AF1203B30206EE85A70C12084612080A
:10059000991208A01208D61208741207301208CC5B
:1005A0001208A712088712069012089012071D124F
:1005B000086A1208C6850CA722AFB5EF30E20375B2
:1005C0003201EF30E303753001EF30E103752E01A6
:1005D000EF30E4047FFFDFFE75B520E5326006E40E
:1005E000F5327F01227F0022E4F5AA53F3C043F3E2
:1005F000C053F3C743F318F5FEF5FDF5D2F5D34329
:10060000AF1075B08853B0DF43B010E5B030E5FBF4
:10061000E4F5B0228F128E118D108C0F75AC14E59D
:100620003354F7F5AD0075AC188512AD008511ADEA
:10063000008510AD00850FAD0075AC148533AD227B
:10064000E53A701712085353B6BFE5A930E7FB75BA
:10065000B58C43B6401205B9020767AFB5EF30E27B
:10066000FA120839E4900024F022E4FDC374079DD7
:10067000FF12087E1206EEC3EF9417EE94FC4004BE
:100680000DBD08E8BD08037F0022C374079DFF224B
:1006900075AC0575AD28E5AC20E7FB75AC0875AD0C
:1006A00020E5AC20E7FB75AC0475AD80E5AC20E738
:1006B000FB228E0D8F0E1206D1AE0DAF0E7C407D4B
:1006C00010120274E47BE87A03F9F812018F020633
:1006D0001475AC10E4F5AD00F5AD00F5AD00F5AD69
:1006E000001207867F0412085FEF20E1F72275B041
:1006F0008853B0DF43B010E5B030E5FB85EE1A85D6
:10070000ED1BE4F5B0AE1AAF1B2243F22143A52145
:100710005390DE53A5DE43902153F2DE22AF88537F
:1007200088AF758C9EEF5440FEEF54104E428822E5
:10073000E4F5A775A50275F20275D5E375A70F75E7
:100740009B022212077712042BAF2AAE291206B29F
:100750007F1C02082B12077712042BAF26AE25123E
:1007600006B27F1C02082BAFA7E4F5A78531A9E5E7
:10077000A930E7FB8FA72275B520E4F534F532F5F3
:1007800030F52DF52E22E5334402FD7F04EF4410B1
:10079000F5AC8DAD22C281D282D283C284C285C221
:1007A00086C28722D281D282C283D284D285C28677
:1007B000D28722D281D282D283D284C285C286D20B
:1007C0008722C281D282D283C284C285D286D28756
:1007D00022D281C282D283D284C285D286D287229B
:1007E000D281C282D283D284D285D286D28722D2CB
:1007F00081D282D283C284C285C286C28722D2813C
:10080000D282D283D284D285D286D28722D281D29A
:1008100082D283D284C285D286D28722D281D282EA
:10082000D283D284D285D286C28722EF54FC42334F
:10083000E5334FFD7F0402078D1205B9EF60069086
:1008400000247401F022E4F5A753D9BF75D90443FD
:10085000D8402285A93175A914E5A930E7FB22EF1C
:100860004490F5AC000000AFAD22758E047589028E
:100870004388102275A4FF75A70F7599FF2253AF07
:10088000F8EF540742AF2243B280E5B230E6FB22D4
:10089000E4F5A9E5A930E7FB2253DF7F75DA4222B0
:1008A00053DF7F75DC082275E34075E20122EF54C7
:1008B00007F5AA221208BA0205E85390DE0208D210
:1008C00012070A020556120FBC020903E4F5A7F548
:1008D000A02253F2DE2275C9102253D9BF228FAB5A
:1008E00022020755020743222222080D07070505A9
:1008F00046461E1E3E3EE521B401047537022275B0
:10090000370122E4F50DE50DC39522501DE4FDFCF1
:10091000AF0D3135AF0D31FFAF0D312CAF0D31B112
:10092000AF0D316D518F050D80DC80CA75F00EEF73
:10093000F1D1E4F0228F0EE4FFEFC3952B50147534
:10094000F00EE50E121173EF12025FECF0A3EDF062
:100950000F80E675F00EE50EF1D1E4F0E50E90089B
:10096000F493FF75F00EE50EF1F6EFF0228F0E75A1
:10097000F00EEFF1D1E0543FF075F00EE50EF1C648
:10098000E4F012117DE50E9008F212119CE50E259F
:10099000E02445F8A60608A60712117DE50E90088A
:1009A000F012119CE50E25E02449F8A60608A607DA
:1009B00022F1D9E0FCA3E0FD75F00EEFF1E3ECF0DD
:1009C000A3EDF075F00EEF90000C12025FE4F0A3BF
:1009D000F0E522C3940450028007E522C394085036
:1009E00005751C80800AE522C394105003751C40D5
:1009F000E522C394205004751C1022751C08228F18
:100A00000EE4F510F511F515F514F513F51211E8CE
:100A1000E4F515F514F513F51275F00EE50EF1DD9C
:100A2000E4F0A3F0F510F511AF0E1204D0E4FCFDD4
:100A3000E5152FFFE5143EFEED3513FDEC35128F65
:100A4000158E148D13F5120511E51170020510C3F2
:100A50009408E510940040D0AF15AE14AD13AC125D
:100A600078031202218E168F1775F00EE50EF1DD58
:100A7000E516F0A3E517F0E4F50FE50FC3952B504D
:100A80000CAD17AC16AF0E519C050F80ED01E9E4DB
:100A9000F541F540F53FF53E754201228C188D1960
:100AA000EF75F00EA42400F9740035F0FA7B019084
:100AB000001C12026B120080FF900002E5F08FF024
:100AC0001200CAE5188519F00200AB8F0C1204D091
:100AD000AD07AC06AF0C80C4E4781FF6781FE6FFC4
:100AE000C39522502051CB781FE6FF12111F781FAB
:100AF000E6FF912B781FE6FFB11D781FE6FFB1FFDF
:100B0000781F0680D7E4F543F544F50CE50CC39552
:100B1000225066E4FDAF0C911A8E0D8F0E9116EFE8
:100B20004E7004AE0DAF0ED3E50E9FE50D9E400C4A
:100B3000E50E9FF510E50D9EF50F800BC3EF950EAA
:100B4000F510EE950DF50FAD0CAF10AE0FF116755B
:100B50000F008F10D3E510945AE50F9400400AE57A
:100B600010946EE50F9400400CE5102544F544E523
:100B70000F3543F543050C8093E47F07FEFDFCAB86
:100B800041AA40A93FA83E120104E47B081211A823
:100B9000C004C005C006C007AE43AF44E4FCFD7806
:100BA00010120234E47B081211A8D003D002D00145
:100BB000D0001200F78F418E408D3F8C3EE4FBFA4F
:100BC0007901F8AF41AE40AD3FAC3E12018FC00697
:100BD000C007AF22AB077A00E4F9F8D007D00612BD
:100BE000018F781DA60608A60718E6FE08E6FFC3D3
:100BF000940AEE9400500BE53D70047542012215F5
:100C00003D22C3EF940FEE94005007753D0A7542E4
:100C10000222754203227D01AF0C75F00EEF121116
:100C200073ED12025FE0FEA3E0FF228F0CE4FD9162
:100C30001A90001CEEF0A3EFF0911690001E121116
:100C4000C47002A3E0700F90001CE0FFA3E09000CE
:100C50001ECFF0A3EFF0AF0CF1079000201211C4EB
:100C6000FEA3E0FFD31211B940241211D6FF900069
:100C70001FE02FFD90001EE03EFCD31211AE400E8F
:100C800090001FE02FFF90001EE03E1211CE90005A
:100C90001EE0FEA3E0FFC31211B950261211D6FFC9
:100CA000C390001FE09FFD90001EE09EFCC3121148
:100CB000AE500FC390001FE09FFF90001EE09E12F9
:100CC00011CEE490001EF0A3F0AF1CAB07FAF9F8C8
:100CD00075F00EE50CF1E312024712018F12119329
:100CE000E51C24FFFFE434FFFEE4FCFD120104C018
:100CF00004C005C006C007AF1CAB07E4FAF9F890C2
:100D0000001C12024712018FD003D002D001D00084
:100D10001200F775F00EE50CF1E30202538F0CEFB1
:100D200025E02445F8E6F50F08E6F510EF25E02468
:100D300049F8E6F50D08E6F50EE4FDFCF1458E11E7
:100D40008F12F1CCE054807028C3E512950EE511A6
:100D5000950D5004AF0CC1EDD3E512950EE511953C
:100D60000D4035AF0CB1C8EF602EF1CCE04480F0FF
:100D700022D3E5129510E511950F4004AF0CC1E2A6
:100D8000C3E5129510E511950F500DAF0CB199EF19
:100D90006006F1CCE0547FF022F1C0E0FF540FFD7B
:100DA000640F60010DF1C2EF54F0F0F1C2E04DF0BC
:100DB000ED640F6007D1D7EDC39F4009F1C2E05445
:100DC000F0F07F01227F0022F1C0E0FFC4540FFD4C
:100DD000640F60010DF1C2EF540FF0F1C2E0FFEDBE
:100DE000C454F0FCEF4CF0ED640F6007D1D7EDC3B5
:100DF0009F4009F1C2E0540FF07F01227F0022F1F1
:100E0000D7E0F50DA3E0F50ED1F8EF6002C1D6E50D
:100E100042640175F00E6007E50C90000A8005E55C
:100E20000C90000012025FE0F50FA3E0F510D3E58F
:100E300010950EE50F950D4007F1E9240AF080109A
:100E4000C3E510950EE50F950D5005F1E924F6F078
:100E5000F1E9FFD3648094E4401075F00EE50CF1E5
:100E6000DDE475F00112006A805FC3EF6480941CBA
:100E70005064E5426401703FE50C9008F493C3139D
:100E8000FF75F00EE50CF1DDE0FCA3E0C39FFFEC85
:100E90009400FE75F00EE50CF1E3E0FCA3E0FDC369
:100EA0009FEC9E75F00EE50C900004501212025F4C
:100EB000ECF0A3EDF0801275F00EE50C900004123A
:100EC000025F74FFF5F012006A75F00EE50C9000F9
:100ED0000912025FE4F022E5426401AF2360027F61
:100EE0000F2275F00EEFF1C6E054F0F02275F00E0F
:100EF000EFF1C6E0540FF02275F00EEFF1D1E07F74
:100F00000030E6027F012275F00EEFF1F6E075F099
:100F100010A4FFAEF0228E118F12AF05F107EE3351
:100F200095E0FDFCC004121195AE11AF127C007D5E
:100F300064120274D00012018FD3EF94FFEE94007C
:100F400040027FFF22AB07F173C3EF9DF514EE9CC7
:100F5000F51375F00EEBF1DDE0FEA3E0FFD3E51431
:100F60009FE5139E4009E5149FFFE5139EFE22E4D2
:100F7000FEFF22E54275F00EB40106EF90000080FE
:100F800004EF90000A12025FE0FEA3E0FF22E4F506
:100F90000DF50CE50CC395225010AF0CF1ADBF015F
:100FA00005750D018004050C80E9AF0D2275F00E6A
:100FB000EFF1D1E07F0030E7027F012211B401E1BF
:100FC000AE0775F00EEE90000802025F75F00EE5B8
:100FD0000C90000702025F8F0C75F00EEF9000047A
:100FE00002025F90000A02025F75F00EE50C9000AD
:0C0FF0000912025FE02290000602025F7E
:10100000120839E53764036018E53764016012E5BA
:10101000376402600201A1900024E06401600201D3
:10102000A1900024E024FFB39200E4F0E5376402CD
:101030006006E53764017043120F8EEF702AE524D5
:10104000B4012A0536E536AE357002053514C39570
:1010500028EE95274017753703E4F535F536120865
:10106000E41208C011A28005E4F535F536E537B481
:10107000010930002C120640C20022E537640370DB
:101080008212064011F1EF700201031208E112080A
:10109000B4E521600475370222753701E4F535F5B2
:1010A0003622E4F510F50FF50EF50DF538F539F5A6
:1010B00010F50FF50EF50DF50C1206EEE4FCFDE54E
:1010C000102FFFE50F3EFEED350EFDEC350D8F10B8
:1010D0008E0F8D0EF50D050CE50CC3940440DAAFB0
:1010E00010AE0FAD0EAC0D78021202218E388F3982
:1010F000221206EEE539253CFDE538353BFCD3EF01
:101100009DEE9C40037F0122C3E539953CFDE53807
:10111000953BFCC3EF9DEE9C7F0050027F012212A5
:101120000FD7E0FEA3E0FDAC0675F00EEF120FF650
:10113000E075F008A4AEF02DF50EEE3CF50DC3E51C
:101140000E9DE50D9C5006120FCCE4F022AF0C1260
:101150000F73D3EF950EEE950D75F00EE50C900024
:1011600007400812025FE04440F02212025FE054A0
:10117000BFF02290000012025F75F0022275F00E9F
:10118000E50E90000612025FE0FF7E007C007D10FD
:10119000120274A804A905AA06AB072293FFE4FC77
:1011A000FDFE120104E47B64FAF9F802018F90005D
:1011B0001DE09D90001CE09C2290001DE09F90008F
:1011C0001CE09E22EEF0A3EFF090001EE0229000C3
:0E11D0001CF0A3EFF022900020E0FEA3E0222E
:00000001FF
